{
  "contractName": "Fundraiser",
  "abi": [
    {
      "inputs": [
        {
          "internalType": "string",
          "name": "_name",
          "type": "string"
        },
        {
          "internalType": "string",
          "name": "_url",
          "type": "string"
        },
        {
          "internalType": "string",
          "name": "_imageURL",
          "type": "string"
        },
        {
          "internalType": "string",
          "name": "_description",
          "type": "string"
        },
        {
          "internalType": "address payable",
          "name": "_beneficiary",
          "type": "address"
        },
        {
          "internalType": "address",
          "name": "_custodian",
          "type": "address"
        }
      ],
      "stateMutability": "nonpayable",
      "type": "constructor"
    },
    {
      "anonymous": false,
      "inputs": [
        {
          "indexed": true,
          "internalType": "address",
          "name": "donor",
          "type": "address"
        },
        {
          "indexed": false,
          "internalType": "uint256",
          "name": "value",
          "type": "uint256"
        }
      ],
      "name": "DonationReceived",
      "type": "event"
    },
    {
      "anonymous": false,
      "inputs": [
        {
          "indexed": true,
          "internalType": "address",
          "name": "previousOwner",
          "type": "address"
        },
        {
          "indexed": true,
          "internalType": "address",
          "name": "newOwner",
          "type": "address"
        }
      ],
      "name": "OwnershipTransferred",
      "type": "event"
    },
    {
      "anonymous": false,
      "inputs": [
        {
          "indexed": false,
          "internalType": "uint256",
          "name": "amount",
          "type": "uint256"
        }
      ],
      "name": "Withdraw",
      "type": "event"
    },
    {
      "inputs": [],
      "name": "beneficiary",
      "outputs": [
        {
          "internalType": "address payable",
          "name": "",
          "type": "address"
        }
      ],
      "stateMutability": "view",
      "type": "function"
    },
    {
      "inputs": [],
      "name": "custodian",
      "outputs": [
        {
          "internalType": "address",
          "name": "",
          "type": "address"
        }
      ],
      "stateMutability": "view",
      "type": "function"
    },
    {
      "inputs": [],
      "name": "description",
      "outputs": [
        {
          "internalType": "string",
          "name": "",
          "type": "string"
        }
      ],
      "stateMutability": "view",
      "type": "function"
    },
    {
      "inputs": [],
      "name": "donationsCount",
      "outputs": [
        {
          "internalType": "uint256",
          "name": "",
          "type": "uint256"
        }
      ],
      "stateMutability": "view",
      "type": "function"
    },
    {
      "inputs": [],
      "name": "imageURL",
      "outputs": [
        {
          "internalType": "string",
          "name": "",
          "type": "string"
        }
      ],
      "stateMutability": "view",
      "type": "function"
    },
    {
      "inputs": [],
      "name": "name",
      "outputs": [
        {
          "internalType": "string",
          "name": "",
          "type": "string"
        }
      ],
      "stateMutability": "view",
      "type": "function"
    },
    {
      "inputs": [],
      "name": "owner",
      "outputs": [
        {
          "internalType": "address",
          "name": "",
          "type": "address"
        }
      ],
      "stateMutability": "view",
      "type": "function"
    },
    {
      "inputs": [],
      "name": "renounceOwnership",
      "outputs": [],
      "stateMutability": "nonpayable",
      "type": "function"
    },
    {
      "inputs": [],
      "name": "totalDonations",
      "outputs": [
        {
          "internalType": "uint256",
          "name": "",
          "type": "uint256"
        }
      ],
      "stateMutability": "view",
      "type": "function"
    },
    {
      "inputs": [
        {
          "internalType": "address",
          "name": "newOwner",
          "type": "address"
        }
      ],
      "name": "transferOwnership",
      "outputs": [],
      "stateMutability": "nonpayable",
      "type": "function"
    },
    {
      "inputs": [],
      "name": "url",
      "outputs": [
        {
          "internalType": "string",
          "name": "",
          "type": "string"
        }
      ],
      "stateMutability": "view",
      "type": "function"
    },
    {
      "stateMutability": "payable",
      "type": "receive"
    },
    {
      "inputs": [
        {
          "internalType": "address payable",
          "name": "_beneficiary",
          "type": "address"
        }
      ],
      "name": "setBeneficiary",
      "outputs": [],
      "stateMutability": "nonpayable",
      "type": "function"
    },
    {
      "inputs": [],
      "name": "myDonationsCount",
      "outputs": [
        {
          "internalType": "uint256",
          "name": "",
          "type": "uint256"
        }
      ],
      "stateMutability": "view",
      "type": "function"
    },
    {
      "inputs": [],
      "name": "donate",
      "outputs": [],
      "stateMutability": "payable",
      "type": "function"
    },
    {
      "inputs": [],
      "name": "myDonations",
      "outputs": [
        {
          "internalType": "uint256[]",
          "name": "values",
          "type": "uint256[]"
        },
        {
          "internalType": "uint256[]",
          "name": "dates",
          "type": "uint256[]"
        }
      ],
      "stateMutability": "view",
      "type": "function"
    },
    {
      "inputs": [],
      "name": "withdraw",
      "outputs": [],
      "stateMutability": "nonpayable",
      "type": "function"
    }
  ],
  "bytecode": "0x60806040523480156200001157600080fd5b5060405162001d3038038062001d308339818101604052810190620000379190620004e9565b600062000049620001a960201b60201c565b9050806000806101000a81548173ffffffffffffffffffffffffffffffffffffffff021916908373ffffffffffffffffffffffffffffffffffffffff1602179055508073ffffffffffffffffffffffffffffffffffffffff16600073ffffffffffffffffffffffffffffffffffffffff167f8be0079c531659141344cd1fd0a4f28419497f9722a3daafe3b4186f6b6457e060405160405180910390a3508560029080519060200190620000ff92919062000399565b5084600390805190602001906200011892919062000399565b5083600490805190602001906200013192919062000399565b5082600590805190602001906200014a92919062000399565b5081600660006101000a81548173ffffffffffffffffffffffffffffffffffffffff021916908373ffffffffffffffffffffffffffffffffffffffff1602179055506200019d81620001b160201b60201c565b505050505050620008ea565b600033905090565b620001c1620001a960201b60201c565b73ffffffffffffffffffffffffffffffffffffffff16620001e76200037060201b60201c565b73ffffffffffffffffffffffffffffffffffffffff161462000240576040517f08c379a0000000000000000000000000000000000000000000000000000000008152600401620002379062000653565b60405180910390fd5b600073ffffffffffffffffffffffffffffffffffffffff168173ffffffffffffffffffffffffffffffffffffffff161415620002b3576040517f08c379a0000000000000000000000000000000000000000000000000000000008152600401620002aa9062000631565b60405180910390fd5b8073ffffffffffffffffffffffffffffffffffffffff1660008054906101000a900473ffffffffffffffffffffffffffffffffffffffff1673ffffffffffffffffffffffffffffffffffffffff167f8be0079c531659141344cd1fd0a4f28419497f9722a3daafe3b4186f6b6457e060405160405180910390a3806000806101000a81548173ffffffffffffffffffffffffffffffffffffffff021916908373ffffffffffffffffffffffffffffffffffffffff16021790555050565b60008060009054906101000a900473ffffffffffffffffffffffffffffffffffffffff16905090565b828054620003a79062000763565b90600052602060002090601f016020900481019282620003cb576000855562000417565b82601f10620003e657805160ff191683800117855562000417565b8280016001018555821562000417579182015b8281111562000416578251825591602001919060010190620003f9565b5b5090506200042691906200042a565b5090565b5b80821115620004455760008160009055506001016200042b565b5090565b6000620004606200045a846200069e565b62000675565b9050828152602081018484840111156200047957600080fd5b620004868482856200072d565b509392505050565b6000815190506200049f81620008b6565b92915050565b600081519050620004b681620008d0565b92915050565b600082601f830112620004ce57600080fd5b8151620004e084826020860162000449565b91505092915050565b60008060008060008060c087890312156200050357600080fd5b600087015167ffffffffffffffff8111156200051e57600080fd5b6200052c89828a01620004bc565b965050602087015167ffffffffffffffff8111156200054a57600080fd5b6200055889828a01620004bc565b955050604087015167ffffffffffffffff8111156200057657600080fd5b6200058489828a01620004bc565b945050606087015167ffffffffffffffff811115620005a257600080fd5b620005b089828a01620004bc565b9350506080620005c389828a01620004a5565b92505060a0620005d689828a016200048e565b9150509295509295509295565b6000620005f2602683620006d4565b9150620005ff826200083e565b604082019050919050565b600062000619602083620006d4565b915062000626826200088d565b602082019050919050565b600060208201905081810360008301526200064c81620005e3565b9050919050565b600060208201905081810360008301526200066e816200060a565b9050919050565b60006200068162000694565b90506200068f828262000799565b919050565b6000604051905090565b600067ffffffffffffffff821115620006bc57620006bb620007fe565b5b620006c7826200082d565b9050602081019050919050565b600082825260208201905092915050565b6000620006f2826200070d565b9050919050565b600062000706826200070d565b9050919050565b600073ffffffffffffffffffffffffffffffffffffffff82169050919050565b60005b838110156200074d57808201518184015260208101905062000730565b838111156200075d576000848401525b50505050565b600060028204905060018216806200077c57607f821691505b60208210811415620007935762000792620007cf565b5b50919050565b620007a4826200082d565b810181811067ffffffffffffffff82111715620007c657620007c5620007fe565b5b80604052505050565b7f4e487b7100000000000000000000000000000000000000000000000000000000600052602260045260246000fd5b7f4e487b7100000000000000000000000000000000000000000000000000000000600052604160045260246000fd5b6000601f19601f8301169050919050565b7f4f776e61626c653a206e6577206f776e657220697320746865207a65726f206160008201527f6464726573730000000000000000000000000000000000000000000000000000602082015250565b7f4f776e61626c653a2063616c6c6572206973206e6f7420746865206f776e6572600082015250565b620008c181620006e5565b8114620008cd57600080fd5b50565b620008db81620006f9565b8114620008e757600080fd5b50565b61143680620008fa6000396000f3fe6080604052600436106100f75760003560e01c80635600f04f1161008a578063b90497e011610059578063b90497e01461030a578063de2ed89314610335578063ed88c68e14610360578063f2fde38b1461036a5761012a565b80635600f04f14610272578063715018a61461029d5780637284e416146102b45780638da5cb5b146102df5761012a565b80631f522595116100c65780631f522595146101da578063375b74c31461020557806338af3eed146102305780633ccfd60b1461025b5761012a565b80630180b97c1461012f57806306fdde031461015a5780631a57f7b4146101855780631c31f710146101b15761012a565b3661012a573460085461010a9190611199565b60088190555060096000815480929190610123906112a2565b9190505550005b600080fd5b34801561013b57600080fd5b50610144610393565b6040516101519190611129565b60405180910390f35b34801561016657600080fd5b5061016f6103dd565b60405161017c91906110c7565b60405180910390f35b34801561019157600080fd5b5061019a61046b565b6040516101a8929190611090565b60405180910390f35b3480156101bd57600080fd5b506101d860048036038101906101d39190610f00565b61069e565b005b3480156101e657600080fd5b506101ef61075e565b6040516101fc9190611129565b60405180910390f35b34801561021157600080fd5b5061021a610764565b604051610227919061105a565b60405180910390f35b34801561023c57600080fd5b5061024561078a565b6040516102529190611075565b60405180910390f35b34801561026757600080fd5b506102706107b0565b005b34801561027e57600080fd5b506102876108d4565b60405161029491906110c7565b60405180910390f35b3480156102a957600080fd5b506102b2610962565b005b3480156102c057600080fd5b506102c9610a9c565b6040516102d691906110c7565b60405180910390f35b3480156102eb57600080fd5b506102f4610b2a565b604051610301919061105a565b60405180910390f35b34801561031657600080fd5b5061031f610b53565b60405161032c91906110c7565b60405180910390f35b34801561034157600080fd5b5061034a610be1565b6040516103579190611129565b60405180910390f35b610368610be7565b005b34801561037657600080fd5b50610391600480360381019061038c9190610ed7565b610cfc565b005b6000600160003373ffffffffffffffffffffffffffffffffffffffff1673ffffffffffffffffffffffffffffffffffffffff16815260200190815260200160002080549050905090565b600280546103ea90611270565b80601f016020809104026020016040519081016040528092919081815260200182805461041690611270565b80156104635780601f1061043857610100808354040283529160200191610463565b820191906000526020600020905b81548152906001019060200180831161044657829003601f168201915b505050505081565b6060806000610478610393565b90508067ffffffffffffffff8111156104ba577f4e487b7100000000000000000000000000000000000000000000000000000000600052604160045260246000fd5b6040519080825280602002602001820160405280156104e85781602001602082028036833780820191505090505b5092508067ffffffffffffffff81111561052b577f4e487b7100000000000000000000000000000000000000000000000000000000600052604160045260246000fd5b6040519080825280602002602001820160405280156105595781602001602082028036833780820191505090505b50915060005b81811015610698576000600160003373ffffffffffffffffffffffffffffffffffffffff1673ffffffffffffffffffffffffffffffffffffffff16815260200190815260200160002082815481106105e0577f4e487b7100000000000000000000000000000000000000000000000000000000600052603260045260246000fd5b90600052602060002090600202019050806000015485838151811061062e577f4e487b7100000000000000000000000000000000000000000000000000000000600052603260045260246000fd5b6020026020010181815250508060000154848381518110610678577f4e487b7100000000000000000000000000000000000000000000000000000000600052603260045260246000fd5b602002602001018181525050508080610690906112a2565b91505061055f565b50509091565b6106a6610ea5565b73ffffffffffffffffffffffffffffffffffffffff166106c4610b2a565b73ffffffffffffffffffffffffffffffffffffffff161461071a576040517f08c379a000000000000000000000000000000000000000000000000000000000815260040161071190611109565b60405180910390fd5b80600660006101000a81548173ffffffffffffffffffffffffffffffffffffffff021916908373ffffffffffffffffffffffffffffffffffffffff16021790555050565b60095481565b600760009054906101000a900473ffffffffffffffffffffffffffffffffffffffff1681565b600660009054906101000a900473ffffffffffffffffffffffffffffffffffffffff1681565b6107b8610ea5565b73ffffffffffffffffffffffffffffffffffffffff166107d6610b2a565b73ffffffffffffffffffffffffffffffffffffffff161461082c576040517f08c379a000000000000000000000000000000000000000000000000000000000815260040161082390611109565b60405180910390fd5b6000479050600660009054906101000a900473ffffffffffffffffffffffffffffffffffffffff1673ffffffffffffffffffffffffffffffffffffffff166108fc829081150290604051600060405180830381858888f19350505050158015610899573d6000803e3d6000fd5b507f5b6b431d4476a211bb7d41c20d1aab9ae2321deee0d20be3d9fc9b1093fa6e3d816040516108c99190611129565b60405180910390a150565b600380546108e190611270565b80601f016020809104026020016040519081016040528092919081815260200182805461090d90611270565b801561095a5780601f1061092f5761010080835404028352916020019161095a565b820191906000526020600020905b81548152906001019060200180831161093d57829003601f168201915b505050505081565b61096a610ea5565b73ffffffffffffffffffffffffffffffffffffffff16610988610b2a565b73ffffffffffffffffffffffffffffffffffffffff16146109de576040517f08c379a00000000000000000000000000000000000000000000000000000000081526004016109d590611109565b60405180910390fd5b600073ffffffffffffffffffffffffffffffffffffffff1660008054906101000a900473ffffffffffffffffffffffffffffffffffffffff1673ffffffffffffffffffffffffffffffffffffffff167f8be0079c531659141344cd1fd0a4f28419497f9722a3daafe3b4186f6b6457e060405160405180910390a360008060006101000a81548173ffffffffffffffffffffffffffffffffffffffff021916908373ffffffffffffffffffffffffffffffffffffffff160217905550565b60058054610aa990611270565b80601f0160208091040260200160405190810160405280929190818152602001828054610ad590611270565b8015610b225780601f10610af757610100808354040283529160200191610b22565b820191906000526020600020905b815481529060010190602001808311610b0557829003601f168201915b505050505081565b60008060009054906101000a900473ffffffffffffffffffffffffffffffffffffffff16905090565b60048054610b6090611270565b80601f0160208091040260200160405190810160405280929190818152602001828054610b8c90611270565b8015610bd95780601f10610bae57610100808354040283529160200191610bd9565b820191906000526020600020905b815481529060010190602001808311610bbc57829003601f168201915b505050505081565b60085481565b60006040518060400160405280348152602001428152509050600160003373ffffffffffffffffffffffffffffffffffffffff1673ffffffffffffffffffffffffffffffffffffffff1681526020019081526020016000208190806001815401808255809150506001900390600052602060002090600202016000909190919091506000820151816000015560208201518160010155505034600854610c8d9190611199565b60088190555060096000815480929190610ca6906112a2565b91905055503373ffffffffffffffffffffffffffffffffffffffff167f264f630d9efa0d07053a31163641d9fcc0adafc9d9e76f1c37c2ce3a558d2c5234604051610cf19190611129565b60405180910390a250565b610d04610ea5565b73ffffffffffffffffffffffffffffffffffffffff16610d22610b2a565b73ffffffffffffffffffffffffffffffffffffffff1614610d78576040517f08c379a0000000000000000000000000000000000000000000000000000000008152600401610d6f90611109565b60405180910390fd5b600073ffffffffffffffffffffffffffffffffffffffff168173ffffffffffffffffffffffffffffffffffffffff161415610de8576040517f08c379a0000000000000000000000000000000000000000000000000000000008152600401610ddf906110e9565b60405180910390fd5b8073ffffffffffffffffffffffffffffffffffffffff1660008054906101000a900473ffffffffffffffffffffffffffffffffffffffff1673ffffffffffffffffffffffffffffffffffffffff167f8be0079c531659141344cd1fd0a4f28419497f9722a3daafe3b4186f6b6457e060405160405180910390a3806000806101000a81548173ffffffffffffffffffffffffffffffffffffffff021916908373ffffffffffffffffffffffffffffffffffffffff16021790555050565b600033905090565b600081359050610ebc816113d2565b92915050565b600081359050610ed1816113e9565b92915050565b600060208284031215610ee957600080fd5b6000610ef784828501610ead565b91505092915050565b600060208284031215610f1257600080fd5b6000610f2084828501610ec2565b91505092915050565b6000610f35838361103c565b60208301905092915050565b610f4a81611201565b82525050565b610f59816111ef565b82525050565b6000610f6a82611154565b610f748185611177565b9350610f7f83611144565b8060005b83811015610fb0578151610f978882610f29565b9750610fa28361116a565b925050600181019050610f83565b5085935050505092915050565b6000610fc88261115f565b610fd28185611188565b9350610fe281856020860161123d565b610feb81611349565b840191505092915050565b6000611003602683611188565b915061100e8261135a565b604082019050919050565b6000611026602083611188565b9150611031826113a9565b602082019050919050565b61104581611233565b82525050565b61105481611233565b82525050565b600060208201905061106f6000830184610f50565b92915050565b600060208201905061108a6000830184610f41565b92915050565b600060408201905081810360008301526110aa8185610f5f565b905081810360208301526110be8184610f5f565b90509392505050565b600060208201905081810360008301526110e18184610fbd565b905092915050565b6000602082019050818103600083015261110281610ff6565b9050919050565b6000602082019050818103600083015261112281611019565b9050919050565b600060208201905061113e600083018461104b565b92915050565b6000819050602082019050919050565b600081519050919050565b600081519050919050565b6000602082019050919050565b600082825260208201905092915050565b600082825260208201905092915050565b60006111a482611233565b91506111af83611233565b9250827fffffffffffffffffffffffffffffffffffffffffffffffffffffffffffffffff038211156111e4576111e36112eb565b5b828201905092915050565b60006111fa82611213565b9050919050565b600061120c82611213565b9050919050565b600073ffffffffffffffffffffffffffffffffffffffff82169050919050565b6000819050919050565b60005b8381101561125b578082015181840152602081019050611240565b8381111561126a576000848401525b50505050565b6000600282049050600182168061128857607f821691505b6020821081141561129c5761129b61131a565b5b50919050565b60006112ad82611233565b91507fffffffffffffffffffffffffffffffffffffffffffffffffffffffffffffffff8214156112e0576112df6112eb565b5b600182019050919050565b7f4e487b7100000000000000000000000000000000000000000000000000000000600052601160045260246000fd5b7f4e487b7100000000000000000000000000000000000000000000000000000000600052602260045260246000fd5b6000601f19601f8301169050919050565b7f4f776e61626c653a206e6577206f776e657220697320746865207a65726f206160008201527f6464726573730000000000000000000000000000000000000000000000000000602082015250565b7f4f776e61626c653a2063616c6c6572206973206e6f7420746865206f776e6572600082015250565b6113db816111ef565b81146113e657600080fd5b50565b6113f281611201565b81146113fd57600080fd5b5056fea26469706673582212207075519927e549056298d39c004b8d05548a863c2784f90dfe434d318a633ab364736f6c63430008040033",
  "immutableReferences": {},
  "source": "pragma solidity 0.8.4;\n\nimport \"@openzeppelin/contracts/access/Ownable.sol\";\n\ncontract Fundraiser is Ownable {\n    event DonationReceived(address indexed donor, uint256 value);\n    event Withdraw(uint256 amount);\n\n    struct Donation {\n        uint256 value;\n        uint256 date;\n    }\n    mapping(address => Donation[]) private _donations;\n\n    string public name;\n    string public url;\n    string public imageURL;\n    string public description;\n    address payable public beneficiary;\n    address public custodian;\n    uint256 public totalDonations;\n    uint256 public donationsCount;\n\n    constructor(\n        string memory _name,\n        string memory _url,\n        string memory _imageURL,\n        string memory _description,\n        address payable _beneficiary,\n        address _custodian\n    ) public {\n        name = _name;\n        url = _url;\n        imageURL = _imageURL;\n        description = _description;\n        beneficiary = _beneficiary;\n        transferOwnership(_custodian);\n    }\n\n    function setBeneficiary(address payable _beneficiary) public onlyOwner {\n        beneficiary = _beneficiary;\n    }\n\n    function myDonationsCount() public view returns (uint256) {\n        return _donations[msg.sender].length;\n    }\n\n    function donate() public payable {\n        Donation memory donation =\n            Donation({value: msg.value, date: block.timestamp});\n        _donations[msg.sender].push(donation);\n        totalDonations = totalDonations + msg.value;\n        donationsCount++;\n\n        emit DonationReceived(msg.sender, msg.value);\n    }\n\n    function myDonations()\n        public\n        view\n        returns (uint256[] memory values, uint256[] memory dates)\n    {\n        uint256 count = myDonationsCount();\n        values = new uint256[](count);\n        dates = new uint256[](count);\n\n        for (uint256 i = 0; i < count; i++) {\n            Donation storage donation = _donations[msg.sender][i];\n            values[i] = donation.value;\n            dates[i] = donation.value;\n        }\n        return (values, dates);\n    }\n\n    function withdraw() public onlyOwner {\n        uint256 balance = address(this).balance;\n        beneficiary.transfer(balance);\n        emit Withdraw(balance);\n    }\n\n    receive() external payable {\n        totalDonations = totalDonations + msg.value;\n        donationsCount++;\n    }\n}\n",
  "sourcePath": "/Users/okudajunta/Documents/solidity/fundraiser-dapp3/contracts/Fundraiser.sol",
  "compiler": {
    "name": "solc",
    "version": "0.8.4+commit.c7e474f2.Emscripten.clang"
  },
  "schemaVersion": "3.4.1",
  "updatedAt": "2021-07-28T07:28:45.385Z",
  "networkType": "ethereum",
  "devdoc": {
    "kind": "dev",
    "methods": {
      "owner()": {
        "details": "Returns the address of the current owner."
      },
      "renounceOwnership()": {
        "details": "Leaves the contract without owner. It will not be possible to call `onlyOwner` functions anymore. Can only be called by the current owner. NOTE: Renouncing ownership will leave the contract without an owner, thereby removing any functionality that is only available to the owner."
      },
      "transferOwnership(address)": {
        "details": "Transfers ownership of the contract to a new account (`newOwner`). Can only be called by the current owner."
      }
    },
    "version": 1
  },
  "userdoc": {
    "kind": "user",
    "methods": {},
    "version": 1
  }
}